:0410000007EF08F0FE
:101008003B82E6ED08F04EEF09F0000001FF00FF1B
:10101800000001010000FF00FF0100000F0EC16E7B
:10102800070EB46E9568070E9412DF0E9312030E26
:101038009612F19E5DEC09F08150F290F286D09EF6
:10104800F28E196A1A6A1B6A1C6A1D6A1E6A1F6A6E
:10105800206A83502A6E8250070B146E81CF0FF0DE
:10106800100E0F16D8900F34106E81CF11F0080EA5
:101078001116D8901134126E81CF13F0040E131686
:10108800D890133412101010156E84CF0FF0030E81
:101098000F16060E106ED8900F36102EFCD70F5074
:1010A800166E1450151016102B6EF29E34C022F0D6
:1010B80035C023F036C024F037C025F030C026F004
:1010C80031C027F032C028F033C029F0F28E195011
:1010D800225C2C6E1A5023582D6E1D50265C2E6EE5
:1010E8001E5027582F6E22C019F023C01AF024C0B2
:1010F8001BF025C01CF026C01DF027C01EF028C01C
:101108001FF029C020F02DBE09D02D5003E1800E1C
:101118002C5C04E3000E2D6E7F0E2C6E2DAE08D0D5
:10112800800E2C5CFF0E2D5803E22D68800E2C6E6D
:101138002FBE08D02F5003E1800E2E5C03E32F6AE8
:101148007F0E2E6E2FAE08D0800E2E5CFF0E2F580D
:1011580003E22F68800E2E6E2A502B182E182C189A
:10116800216E550E0F6EACA2FED70FC0ADFF2A50F0
:101178000F6EACA2FED70FC0ADFF2B500F6EACA206
:10118800FED70FC0ADFF2E500F6EACA2FED70FC01A
:10119800ADFF2C500F6EACA2FED70FC0ADFF215093
:1011A8000F6EACA2FED70FC0ADFF020E186E380E40
:1011B800176EAD0EE82EFED7172EFCD7182EFAD7CD
:1011C80000F047D70600F6CF07F0F7CF08F0F8CFC2
:1011D80009F0F5CF0AF0F2A053D081CF0EF00E50EF
:1011E8003A180B6E0BC001F0030E011620E00E50EA
:1011F800030B0C6E3944E846FC0B0C10016E0150D1
:10120800130F026E02C0F6FF0800F550036E000EC1
:1012180003BEFF0E046E056E066E0350342604509E
:10122800352205503622065037220CC039F00BC043
:1012380001F0C00E011621E00E44E846030B0D6EC6
:101248003844E846FC0B0D10016E0150130F026E76
:1012580002C0F6FF0800F550036E000E03BEFF0E35
:10126800046E056E066E0350302604503122055078
:101278003222065033220DC038F00EC03AF0F290F8
:101288000AC0F5FF09C0F8FF08C0F7FF07C0F6FF5E
:101298003B92110000EE30F00B0EEE6AE806FDE11D
:1012A8003B903B92000EF86E100EF76E000112EFA5
:1012B80008F0949C240EAC6E900EAB6E080EB86EBF
:0812C800B06A670EAF6E670CFF
:020000040020DA
:08000000FFFFFFFFFFFFFFFF00
:020000040030CA
:0E00000000051F1FFF8385FF0FC00FE00F409C
:00000001FF
