:020000040000FA
:040000008A01042845
:040004000034003490
:0800080083160317880189012A
:1000100083160313FF3088008316031386018312AF
:100020000313860183120313152883120313080890
:10003000A000200E0F39A1008312031320080339FA
:10004000A20020080C39A500A50C250CA3008312E2
:100050000313A401831203132108003A031D31285E
:100060009F28831203132108013A031D412883129C
:100070000313220883120313230783120313A4001C
:100080009F28831203132108023A031D512883126B
:100090000313230883120313220283120313A40001
:1000A0009F28831203132108033A031D612883123A
:1000B0000313220883120313230583120313A400DE
:1000C0009F28831203132108043A031D7128831209
:1000D0000313220883120313230483120313A400BF
:1000E0009F28831203132108053A031D81288312D8
:1000F0000313220883120313230683120313A4009D
:100100009F28831203132108063A031D90288312A7
:10011000031322080009033983120313A4009F2844
:10012000831203132108073A031D9F288312031328
:1001300023080009033983120313A4009F288312A4
:0C01400003132408831203138600152803
:02400E00E22BA3
:02401000FF3F70
:00000001FF
