:04100000A7EF3FF027
:107F4E000001B1EF3FF0016E01C0C9FFC7A0FED71F
:107F5E00C9501200000E016E020ED1EC3FF0899A4C
:107F6E00100EAAEC3FF0898AC80EE82EFED7899A29
:107F7E00F00EAAEC3FF0898A070E066E170E056EFC
:107F8E006A0EE82EFED7052EFCD7062EFAD700D0A5
:107F9E0000EF08F0036E0F0EC16E070EB46E9380E5
:107FAE009392949E929A898AC79E010E046E0150F6
:107FBE00D8B406D0020E0118D8B402D0000E046E4A
:107FCE0004B002D0C79C01D0C78C020E016001D054
:107FDE0003D0026A022A01D0026A023AC65002187F
:107FEE00EF0B0218C66EC650F00B0310C66EC68A93
:027FFE0012006F
:020000040020DA
:08000000FFFFFFFFFFFFFFFF00
:020000040030CA
:0E00000000051F1FFF8385FF0FC00FE00F409C
:00000001FF
